{
    "_format": "hh-sol-artifact-1",
    "contractName": "RoboPunksNFT",
    "sourceName": "contracts/RobotFunkNFT.sol",
    "abi": [
        {
            "inputs": [],
            "stateMutability": "payable",
            "type": "constructor"
        },
        {
            "anonymous": false,
            "inputs": [
                {
                    "indexed": true,
                    "internalType": "address",
                    "name": "owner",
                    "type": "address"
                },
                {
                    "indexed": true,
                    "internalType": "address",
                    "name": "approved",
                    "type": "address"
                },
                {
                    "indexed": true,
                    "internalType": "uint256",
                    "name": "tokenId",
                    "type": "uint256"
                }
            ],
            "name": "Approval",
            "type": "event"
        },
        {
            "anonymous": false,
            "inputs": [
                {
                    "indexed": true,
                    "internalType": "address",
                    "name": "owner",
                    "type": "address"
                },
                {
                    "indexed": true,
                    "internalType": "address",
                    "name": "operator",
                    "type": "address"
                },
                {
                    "indexed": false,
                    "internalType": "bool",
                    "name": "approved",
                    "type": "bool"
                }
            ],
            "name": "ApprovalForAll",
            "type": "event"
        },
        {
            "anonymous": false,
            "inputs": [
                {
                    "indexed": true,
                    "internalType": "address",
                    "name": "previousOwner",
                    "type": "address"
                },
                {
                    "indexed": true,
                    "internalType": "address",
                    "name": "newOwner",
                    "type": "address"
                }
            ],
            "name": "OwnershipTransferred",
            "type": "event"
        },
        {
            "anonymous": false,
            "inputs": [
                {
                    "indexed": true,
                    "internalType": "address",
                    "name": "from",
                    "type": "address"
                },
                {
                    "indexed": true,
                    "internalType": "address",
                    "name": "to",
                    "type": "address"
                },
                {
                    "indexed": true,
                    "internalType": "uint256",
                    "name": "tokenId",
                    "type": "uint256"
                }
            ],
            "name": "Transfer",
            "type": "event"
        },
        {
            "inputs": [
                {
                    "internalType": "address",
                    "name": "to",
                    "type": "address"
                },
                {
                    "internalType": "uint256",
                    "name": "tokenId",
                    "type": "uint256"
                }
            ],
            "name": "approve",
            "outputs": [],
            "stateMutability": "nonpayable",
            "type": "function"
        },
        {
            "inputs": [
                {
                    "internalType": "address",
                    "name": "owner",
                    "type": "address"
                }
            ],
            "name": "balanceOf",
            "outputs": [
                {
                    "internalType": "uint256",
                    "name": "",
                    "type": "uint256"
                }
            ],
            "stateMutability": "view",
            "type": "function"
        },
        {
            "inputs": [
                {
                    "internalType": "uint256",
                    "name": "tokenId",
                    "type": "uint256"
                }
            ],
            "name": "getApproved",
            "outputs": [
                {
                    "internalType": "address",
                    "name": "",
                    "type": "address"
                }
            ],
            "stateMutability": "view",
            "type": "function"
        },
        {
            "inputs": [
                {
                    "internalType": "address",
                    "name": "owner",
                    "type": "address"
                },
                {
                    "internalType": "address",
                    "name": "operator",
                    "type": "address"
                }
            ],
            "name": "isApprovedForAll",
            "outputs": [
                {
                    "internalType": "bool",
                    "name": "",
                    "type": "bool"
                }
            ],
            "stateMutability": "view",
            "type": "function"
        },
        {
            "inputs": [],
            "name": "isPublicMintEnabled",
            "outputs": [
                {
                    "internalType": "bool",
                    "name": "",
                    "type": "bool"
                }
            ],
            "stateMutability": "view",
            "type": "function"
        },
        {
            "inputs": [],
            "name": "maxPerWallet",
            "outputs": [
                {
                    "internalType": "uint256",
                    "name": "",
                    "type": "uint256"
                }
            ],
            "stateMutability": "view",
            "type": "function"
        },
        {
            "inputs": [],
            "name": "maxSupply",
            "outputs": [
                {
                    "internalType": "uint256",
                    "name": "",
                    "type": "uint256"
                }
            ],
            "stateMutability": "view",
            "type": "function"
        },
        {
            "inputs": [
                {
                    "internalType": "uint256",
                    "name": "quantity_",
                    "type": "uint256"
                }
            ],
            "name": "mint",
            "outputs": [],
            "stateMutability": "payable",
            "type": "function"
        },
        {
            "inputs": [],
            "name": "mintPrice",
            "outputs": [
                {
                    "internalType": "uint256",
                    "name": "",
                    "type": "uint256"
                }
            ],
            "stateMutability": "view",
            "type": "function"
        },
        {
            "inputs": [],
            "name": "name",
            "outputs": [
                {
                    "internalType": "string",
                    "name": "",
                    "type": "string"
                }
            ],
            "stateMutability": "view",
            "type": "function"
        },
        {
            "inputs": [],
            "name": "owner",
            "outputs": [
                {
                    "internalType": "address",
                    "name": "",
                    "type": "address"
                }
            ],
            "stateMutability": "view",
            "type": "function"
        },
        {
            "inputs": [
                {
                    "internalType": "uint256",
                    "name": "tokenId",
                    "type": "uint256"
                }
            ],
            "name": "ownerOf",
            "outputs": [
                {
                    "internalType": "address",
                    "name": "",
                    "type": "address"
                }
            ],
            "stateMutability": "view",
            "type": "function"
        },
        {
            "inputs": [],
            "name": "renounceOwnership",
            "outputs": [],
            "stateMutability": "nonpayable",
            "type": "function"
        },
        {
            "inputs": [
                {
                    "internalType": "address",
                    "name": "from",
                    "type": "address"
                },
                {
                    "internalType": "address",
                    "name": "to",
                    "type": "address"
                },
                {
                    "internalType": "uint256",
                    "name": "tokenId",
                    "type": "uint256"
                }
            ],
            "name": "safeTransferFrom",
            "outputs": [],
            "stateMutability": "nonpayable",
            "type": "function"
        },
        {
            "inputs": [
                {
                    "internalType": "address",
                    "name": "from",
                    "type": "address"
                },
                {
                    "internalType": "address",
                    "name": "to",
                    "type": "address"
                },
                {
                    "internalType": "uint256",
                    "name": "tokenId",
                    "type": "uint256"
                },
                {
                    "internalType": "bytes",
                    "name": "data",
                    "type": "bytes"
                }
            ],
            "name": "safeTransferFrom",
            "outputs": [],
            "stateMutability": "nonpayable",
            "type": "function"
        },
        {
            "inputs": [
                {
                    "internalType": "address",
                    "name": "operator",
                    "type": "address"
                },
                {
                    "internalType": "bool",
                    "name": "approved",
                    "type": "bool"
                }
            ],
            "name": "setApprovalForAll",
            "outputs": [],
            "stateMutability": "nonpayable",
            "type": "function"
        },
        {
            "inputs": [
                {
                    "internalType": "string",
                    "name": "baseTokenUri_",
                    "type": "string"
                }
            ],
            "name": "setBaseTokenUri",
            "outputs": [],
            "stateMutability": "nonpayable",
            "type": "function"
        },
        {
            "inputs": [
                {
                    "internalType": "bool",
                    "name": "isPublicMintEnabled_",
                    "type": "bool"
                }
            ],
            "name": "setIsPublicMintEnabled",
            "outputs": [],
            "stateMutability": "nonpayable",
            "type": "function"
        },
        {
            "inputs": [
                {
                    "internalType": "bytes4",
                    "name": "interfaceId",
                    "type": "bytes4"
                }
            ],
            "name": "supportsInterface",
            "outputs": [
                {
                    "internalType": "bool",
                    "name": "",
                    "type": "bool"
                }
            ],
            "stateMutability": "view",
            "type": "function"
        },
        {
            "inputs": [],
            "name": "symbol",
            "outputs": [
                {
                    "internalType": "string",
                    "name": "",
                    "type": "string"
                }
            ],
            "stateMutability": "view",
            "type": "function"
        },
        {
            "inputs": [
                {
                    "internalType": "uint256",
                    "name": "tokenId",
                    "type": "uint256"
                }
            ],
            "name": "tokenURI",
            "outputs": [
                {
                    "internalType": "string",
                    "name": "",
                    "type": "string"
                }
            ],
            "stateMutability": "view",
            "type": "function"
        },
        {
            "inputs": [
                {
                    "internalType": "uint256",
                    "name": "tokenId_",
                    "type": "uint256"
                }
            ],
            "name": "tokenUri",
            "outputs": [
                {
                    "internalType": "string",
                    "name": "",
                    "type": "string"
                }
            ],
            "stateMutability": "view",
            "type": "function"
        },
        {
            "inputs": [],
            "name": "totalSupply",
            "outputs": [
                {
                    "internalType": "uint256",
                    "name": "",
                    "type": "uint256"
                }
            ],
            "stateMutability": "view",
            "type": "function"
        },
        {
            "inputs": [
                {
                    "internalType": "address",
                    "name": "from",
                    "type": "address"
                },
                {
                    "internalType": "address",
                    "name": "to",
                    "type": "address"
                },
                {
                    "internalType": "uint256",
                    "name": "tokenId",
                    "type": "uint256"
                }
            ],
            "name": "transferFrom",
            "outputs": [],
            "stateMutability": "nonpayable",
            "type": "function"
        },
        {
            "inputs": [
                {
                    "internalType": "address",
                    "name": "newOwner",
                    "type": "address"
                }
            ],
            "name": "transferOwnership",
            "outputs": [],
            "stateMutability": "nonpayable",
            "type": "function"
        },
        {
            "inputs": [
                {
                    "internalType": "address",
                    "name": "",
                    "type": "address"
                }
            ],
            "name": "walletMints",
            "outputs": [
                {
                    "internalType": "uint256",
                    "name": "",
                    "type": "uint256"
                }
            ],
            "stateMutability": "view",
            "type": "function"
        },
        {
            "inputs": [],
            "name": "withdraw",
            "outputs": [],
            "stateMutability": "nonpayable",
            "type": "function"
        },
        {
            "inputs": [],
            "name": "withdrawWallet",
            "outputs": [
                {
                    "internalType": "address payable",
                    "name": "",
                    "type": "address"
                }
            ],
            "stateMutability": "view",
            "type": "function"
        }
    ],
    "bytecode": "0x60806040526040518060400160405280600981526020017f526f626f50756e6b7300000000000000000000000000000000000000000000008152506040518060400160405280600281526020017f5250000000000000000000000000000000000000000000000000000000000000815250816000908162000081919062000423565b50806001908162000093919062000423565b505050620000b6620000aa620000db60201b60201c565b620000e360201b60201c565b66470de4df82000060078190555060006008819055506103e86009819055506200050a565b600033905090565b6000600660009054906101000a900473ffffffffffffffffffffffffffffffffffffffff16905081600660006101000a81548173ffffffffffffffffffffffffffffffffffffffff021916908373ffffffffffffffffffffffffffffffffffffffff1602179055508173ffffffffffffffffffffffffffffffffffffffff168173ffffffffffffffffffffffffffffffffffffffff167f8be0079c531659141344cd1fd0a4f28419497f9722a3daafe3b4186f6b6457e060405160405180910390a35050565b600081519050919050565b7f4e487b7100000000000000000000000000000000000000000000000000000000600052604160045260246000fd5b7f4e487b7100000000000000000000000000000000000000000000000000000000600052602260045260246000fd5b600060028204905060018216806200022b57607f821691505b602082108103620002415762000240620001e3565b5b50919050565b60008190508160005260206000209050919050565b60006020601f8301049050919050565b600082821b905092915050565b600060088302620002ab7fffffffffffffffffffffffffffffffffffffffffffffffffffffffffffffffff826200026c565b620002b786836200026c565b95508019841693508086168417925050509392505050565b6000819050919050565b6000819050919050565b600062000304620002fe620002f884620002cf565b620002d9565b620002cf565b9050919050565b6000819050919050565b6200032083620002e3565b620003386200032f826200030b565b84845462000279565b825550505050565b600090565b6200034f62000340565b6200035c81848462000315565b505050565b5b8181101562000384576200037860008262000345565b60018101905062000362565b5050565b601f821115620003d3576200039d8162000247565b620003a8846200025c565b81016020851015620003b8578190505b620003d0620003c7856200025c565b83018262000361565b50505b505050565b600082821c905092915050565b6000620003f860001984600802620003d8565b1980831691505092915050565b6000620004138383620003e5565b9150826002028217905092915050565b6200042e82620001a9565b67ffffffffffffffff8111156200044a5762000449620001b4565b5b62000456825462000212565b6200046382828562000388565b600060209050601f8311600181146200049b576000841562000486578287015190505b62000492858262000405565b86555062000502565b601f198416620004ab8662000247565b60005b82811015620004d557848901518255600182019150602085019450602081019050620004ae565b86831015620004f55784890151620004f1601f891682620003e5565b8355505b6001600288020188555050505b505050505050565b6137bc806200051a6000396000f3fe6080604052600436106101b75760003560e01c806370a08231116100ec578063a22cb4651161008a578063d5abeb0111610064578063d5abeb01146105eb578063e985e9c514610616578063f0293fd314610653578063f2fde38b14610690576101b7565b8063a22cb4651461055c578063b88d4fde14610585578063c87b56dd146105ae576101b7565b80638da5cb5b116100c65780638da5cb5b146104c157806395652cfa146104ec57806395d89b4114610515578063a0712d6814610540576101b7565b806370a0823114610442578063715018a61461047f57806385d178f414610496576101b7565b80632373ac221161015957806342842e0e1161013357806342842e0e14610386578063453c2310146103af5780636352211e146103da5780636817c76c14610417576101b7565b80632373ac221461031d57806323b872dd146103465780633ccfd60b1461036f576101b7565b8063081812fc11610195578063081812fc1461024f578063095ea7b31461028c5780631675f455146102b557806318160ddd146102f2576101b7565b80630116bc2d146101bc57806301ffc9a7146101e757806306fdde0314610224575b600080fd5b3480156101c857600080fd5b506101d16106b9565b6040516101de9190612113565b60405180910390f35b3480156101f357600080fd5b5061020e6004803603810190610209919061219a565b6106cc565b60405161021b9190612113565b60405180910390f35b34801561023057600080fd5b506102396107ae565b6040516102469190612257565b60405180910390f35b34801561025b57600080fd5b50610276600480360381019061027191906122af565b610840565b604051610283919061231d565b60405180910390f35b34801561029857600080fd5b506102b360048036038101906102ae9190612364565b610886565b005b3480156102c157600080fd5b506102dc60048036038101906102d791906122af565b61099d565b6040516102e99190612257565b60405180910390f35b3480156102fe57600080fd5b50610307610a19565b60405161031491906123b3565b60405180910390f35b34801561032957600080fd5b50610344600480360381019061033f91906123fa565b610a1f565b005b34801561035257600080fd5b5061036d60048036038101906103689190612427565b610a44565b005b34801561037b57600080fd5b50610384610aa4565b005b34801561039257600080fd5b506103ad60048036038101906103a89190612427565b610b7d565b005b3480156103bb57600080fd5b506103c4610b9d565b6040516103d191906123b3565b60405180910390f35b3480156103e657600080fd5b5061040160048036038101906103fc91906122af565b610ba3565b60405161040e919061231d565b60405180910390f35b34801561042357600080fd5b5061042c610c29565b60405161043991906123b3565b60405180910390f35b34801561044e57600080fd5b506104696004803603810190610464919061247a565b610c2f565b60405161047691906123b3565b60405180910390f35b34801561048b57600080fd5b50610494610ce6565b005b3480156104a257600080fd5b506104ab610cfa565b6040516104b891906124c8565b60405180910390f35b3480156104cd57600080fd5b506104d6610d20565b6040516104e3919061231d565b60405180910390f35b3480156104f857600080fd5b50610513600480360381019061050e9190612548565b610d4a565b005b34801561052157600080fd5b5061052a610d68565b6040516105379190612257565b60405180910390f35b61055a600480360381019061055591906122af565b610dfa565b005b34801561056857600080fd5b50610583600480360381019061057e9190612595565b610fd1565b005b34801561059157600080fd5b506105ac60048036038101906105a79190612705565b610fe7565b005b3480156105ba57600080fd5b506105d560048036038101906105d091906122af565b611049565b6040516105e29190612257565b60405180910390f35b3480156105f757600080fd5b506106006110b1565b60405161060d91906123b3565b60405180910390f35b34801561062257600080fd5b5061063d60048036038101906106389190612788565b6110b7565b60405161064a9190612113565b60405180910390f35b34801561065f57600080fd5b5061067a6004803603810190610675919061247a565b61114b565b60405161068791906123b3565b60405180910390f35b34801561069c57600080fd5b506106b760048036038101906106b2919061247a565b611163565b005b600b60009054906101000a900460ff1681565b60007f80ac58cd000000000000000000000000000000000000000000000000000000007bffffffffffffffffffffffffffffffffffffffffffffffffffffffff1916827bffffffffffffffffffffffffffffffffffffffffffffffffffffffff1916148061079757507f5b5e139f000000000000000000000000000000000000000000000000000000007bffffffffffffffffffffffffffffffffffffffffffffffffffffffff1916827bffffffffffffffffffffffffffffffffffffffffffffffffffffffff1916145b806107a757506107a6826111e6565b5b9050919050565b6060600080546107bd906127f7565b80601f01602080910402602001604051908101604052809291908181526020018280546107e9906127f7565b80156108365780601f1061080b57610100808354040283529160200191610836565b820191906000526020600020905b81548152906001019060200180831161081957829003601f168201915b5050505050905090565b600061084b82611250565b6004600083815260200190815260200160002060009054906101000a900473ffffffffffffffffffffffffffffffffffffffff169050919050565b600061089182610ba3565b90508073ffffffffffffffffffffffffffffffffffffffff168373ffffffffffffffffffffffffffffffffffffffff1603610901576040517f08c379a00000000000000000000000000000000000000000000000000000000081526004016108f89061289a565b60405180910390fd5b8073ffffffffffffffffffffffffffffffffffffffff1661092061129b565b73ffffffffffffffffffffffffffffffffffffffff16148061094f575061094e8161094961129b565b6110b7565b5b61098e576040517f08c379a00000000000000000000000000000000000000000000000000000000081526004016109859061292c565b60405180910390fd5b61099883836112a3565b505050565b60606109a88261135c565b6109e7576040517f08c379a00000000000000000000000000000000000000000000000000000000081526004016109de90612998565b60405180910390fd5b600c6109f28361139d565b604051602001610a03929190612ad8565b6040516020818303038152906040529050919050565b60085481565b610a2761146b565b80600b60006101000a81548160ff02191690831515021790555050565b610a55610a4f61129b565b826114e9565b610a94576040517f08c379a0000000000000000000000000000000000000000000000000000000008152600401610a8b90612b79565b60405180910390fd5b610a9f83838361157e565b505050565b610aac61146b565b6000600d60009054906101000a900473ffffffffffffffffffffffffffffffffffffffff1673ffffffffffffffffffffffffffffffffffffffff1647604051610af490612bca565b60006040518083038185875af1925050503d8060008114610b31576040519150601f19603f3d011682016040523d82523d6000602084013e610b36565b606091505b5050905080610b7a576040517f08c379a0000000000000000000000000000000000000000000000000000000008152600401610b7190612c2b565b60405180910390fd5b50565b610b9883838360405180602001604052806000815250610fe7565b505050565b600a5481565b600080610baf83611877565b9050600073ffffffffffffffffffffffffffffffffffffffff168173ffffffffffffffffffffffffffffffffffffffff1603610c20576040517f08c379a0000000000000000000000000000000000000000000000000000000008152600401610c1790612c97565b60405180910390fd5b80915050919050565b60075481565b60008073ffffffffffffffffffffffffffffffffffffffff168273ffffffffffffffffffffffffffffffffffffffff1603610c9f576040517f08c379a0000000000000000000000000000000000000000000000000000000008152600401610c9690612d29565b60405180910390fd5b600360008373ffffffffffffffffffffffffffffffffffffffff1673ffffffffffffffffffffffffffffffffffffffff168152602001908152602001600020549050919050565b610cee61146b565b610cf860006118b4565b565b600d60009054906101000a900473ffffffffffffffffffffffffffffffffffffffff1681565b6000600660009054906101000a900473ffffffffffffffffffffffffffffffffffffffff16905090565b610d5261146b565b8181600c9182610d63929190612eeb565b505050565b606060018054610d77906127f7565b80601f0160208091040260200160405190810160405280929190818152602001828054610da3906127f7565b8015610df05780601f10610dc557610100808354040283529160200191610df0565b820191906000526020600020905b815481529060010190602001808311610dd357829003601f168201915b5050505050905090565b600b60009054906101000a900460ff16610e49576040517f08c379a0000000000000000000000000000000000000000000000000000000008152600401610e4090613007565b60405180910390fd5b60075481610e579190613056565b3414610e98576040517f08c379a0000000000000000000000000000000000000000000000000000000008152600401610e8f906130e4565b60405180910390fd5b60095481600854610ea99190613104565b1115610eea576040517f08c379a0000000000000000000000000000000000000000000000000000000008152600401610ee190613184565b60405180910390fd5b600a5481600e60003373ffffffffffffffffffffffffffffffffffffffff1673ffffffffffffffffffffffffffffffffffffffff16815260200190815260200160002054610f389190613104565b1115610f79576040517f08c379a0000000000000000000000000000000000000000000000000000000008152600401610f70906131f0565b60405180910390fd5b60005b81811015610fcd5760006001600854610f959190613104565b905060086000815480929190610faa90613210565b9190505550610fb9338261197a565b508080610fc590613210565b915050610f7c565b5050565b610fe3610fdc61129b565b8383611998565b5050565b610ff8610ff261129b565b836114e9565b611037576040517f08c379a000000000000000000000000000000000000000000000000000000000815260040161102e90612b79565b60405180910390fd5b61104384848484611b04565b50505050565b606061105482611250565b600061105e611b60565b9050600081511161107e57604051806020016040528060008152506110a9565b806110888461139d565b604051602001611099929190613258565b6040516020818303038152906040525b915050919050565b60095481565b6000600560008473ffffffffffffffffffffffffffffffffffffffff1673ffffffffffffffffffffffffffffffffffffffff16815260200190815260200160002060008373ffffffffffffffffffffffffffffffffffffffff1673ffffffffffffffffffffffffffffffffffffffff16815260200190815260200160002060009054906101000a900460ff16905092915050565b600e6020528060005260406000206000915090505481565b61116b61146b565b600073ffffffffffffffffffffffffffffffffffffffff168173ffffffffffffffffffffffffffffffffffffffff16036111da576040517f08c379a00000000000000000000000000000000000000000000000000000000081526004016111d1906132ee565b60405180910390fd5b6111e3816118b4565b50565b60007f01ffc9a7000000000000000000000000000000000000000000000000000000007bffffffffffffffffffffffffffffffffffffffffffffffffffffffff1916827bffffffffffffffffffffffffffffffffffffffffffffffffffffffff1916149050919050565b6112598161135c565b611298576040517f08c379a000000000000000000000000000000000000000000000000000000000815260040161128f90612c97565b60405180910390fd5b50565b600033905090565b816004600083815260200190815260200160002060006101000a81548173ffffffffffffffffffffffffffffffffffffffff021916908373ffffffffffffffffffffffffffffffffffffffff160217905550808273ffffffffffffffffffffffffffffffffffffffff1661131683610ba3565b73ffffffffffffffffffffffffffffffffffffffff167f8c5be1e5ebec7d5bd14f71427d1e84f3dd0314c0f7b2291e5b200ac8c7c3b92560405160405180910390a45050565b60008073ffffffffffffffffffffffffffffffffffffffff1661137e83611877565b73ffffffffffffffffffffffffffffffffffffffff1614159050919050565b6060600060016113ac84611b77565b01905060008167ffffffffffffffff8111156113cb576113ca6125da565b5b6040519080825280601f01601f1916602001820160405280156113fd5781602001600182028036833780820191505090505b509050600082602001820190505b600115611460578080600190039150507f3031323334353637383961626364656600000000000000000000000000000000600a86061a8153600a85816114545761145361330e565b5b0494506000850361140b575b819350505050919050565b61147361129b565b73ffffffffffffffffffffffffffffffffffffffff16611491610d20565b73ffffffffffffffffffffffffffffffffffffffff16146114e7576040517f08c379a00000000000000000000000000000000000000000000000000000000081526004016114de90613389565b60405180910390fd5b565b6000806114f583610ba3565b90508073ffffffffffffffffffffffffffffffffffffffff168473ffffffffffffffffffffffffffffffffffffffff161480611537575061153681856110b7565b5b8061157557508373ffffffffffffffffffffffffffffffffffffffff1661155d84610840565b73ffffffffffffffffffffffffffffffffffffffff16145b91505092915050565b8273ffffffffffffffffffffffffffffffffffffffff1661159e82610ba3565b73ffffffffffffffffffffffffffffffffffffffff16146115f4576040517f08c379a00000000000000000000000000000000000000000000000000000000081526004016115eb9061341b565b60405180910390fd5b600073ffffffffffffffffffffffffffffffffffffffff168273ffffffffffffffffffffffffffffffffffffffff1603611663576040517f08c379a000000000000000000000000000000000000000000000000000000000815260040161165a906134ad565b60405180910390fd5b6116708383836001611cca565b8273ffffffffffffffffffffffffffffffffffffffff1661169082610ba3565b73ffffffffffffffffffffffffffffffffffffffff16146116e6576040517f08c379a00000000000000000000000000000000000000000000000000000000081526004016116dd9061341b565b60405180910390fd5b6004600082815260200190815260200160002060006101000a81549073ffffffffffffffffffffffffffffffffffffffff02191690556001600360008573ffffffffffffffffffffffffffffffffffffffff1673ffffffffffffffffffffffffffffffffffffffff168152602001908152602001600020600082825403925050819055506001600360008473ffffffffffffffffffffffffffffffffffffffff1673ffffffffffffffffffffffffffffffffffffffff16815260200190815260200160002060008282540192505081905550816002600083815260200190815260200160002060006101000a81548173ffffffffffffffffffffffffffffffffffffffff021916908373ffffffffffffffffffffffffffffffffffffffff160217905550808273ffffffffffffffffffffffffffffffffffffffff168473ffffffffffffffffffffffffffffffffffffffff167fddf252ad1be2c89b69c2b068fc378daa952ba7f163c4a11628f55a4df523b3ef60405160405180910390a46118728383836001611cd0565b505050565b60006002600083815260200190815260200160002060009054906101000a900473ffffffffffffffffffffffffffffffffffffffff169050919050565b6000600660009054906101000a900473ffffffffffffffffffffffffffffffffffffffff16905081600660006101000a81548173ffffffffffffffffffffffffffffffffffffffff021916908373ffffffffffffffffffffffffffffffffffffffff1602179055508173ffffffffffffffffffffffffffffffffffffffff168173ffffffffffffffffffffffffffffffffffffffff167f8be0079c531659141344cd1fd0a4f28419497f9722a3daafe3b4186f6b6457e060405160405180910390a35050565b611994828260405180602001604052806000815250611cd6565b5050565b8173ffffffffffffffffffffffffffffffffffffffff168373ffffffffffffffffffffffffffffffffffffffff1603611a06576040517f08c379a00000000000000000000000000000000000000000000000000000000081526004016119fd90613519565b60405180910390fd5b80600560008573ffffffffffffffffffffffffffffffffffffffff1673ffffffffffffffffffffffffffffffffffffffff16815260200190815260200160002060008473ffffffffffffffffffffffffffffffffffffffff1673ffffffffffffffffffffffffffffffffffffffff16815260200190815260200160002060006101000a81548160ff0219169083151502179055508173ffffffffffffffffffffffffffffffffffffffff168373ffffffffffffffffffffffffffffffffffffffff167f17307eab39ab6107e8899845ad3d59bd9653f200f220920489ca2b5937696c3183604051611af79190612113565b60405180910390a3505050565b611b0f84848461157e565b611b1b84848484611d31565b611b5a576040517f08c379a0000000000000000000000000000000000000000000000000000000008152600401611b51906135ab565b60405180910390fd5b50505050565b606060405180602001604052806000815250905090565b600080600090507a184f03e93ff9f4daa797ed6e38ed64bf6a1f0100000000000000008310611bd5577a184f03e93ff9f4daa797ed6e38ed64bf6a1f0100000000000000008381611bcb57611bca61330e565b5b0492506040810190505b6d04ee2d6d415b85acef81000000008310611c12576d04ee2d6d415b85acef81000000008381611c0857611c0761330e565b5b0492506020810190505b662386f26fc100008310611c4157662386f26fc100008381611c3757611c3661330e565b5b0492506010810190505b6305f5e1008310611c6a576305f5e1008381611c6057611c5f61330e565b5b0492506008810190505b6127108310611c8f576127108381611c8557611c8461330e565b5b0492506004810190505b60648310611cb25760648381611ca857611ca761330e565b5b0492506002810190505b600a8310611cc1576001810190505b80915050919050565b50505050565b50505050565b611ce08383611eb8565b611ced6000848484611d31565b611d2c576040517f08c379a0000000000000000000000000000000000000000000000000000000008152600401611d23906135ab565b60405180910390fd5b505050565b6000611d528473ffffffffffffffffffffffffffffffffffffffff166120d5565b15611eab578373ffffffffffffffffffffffffffffffffffffffff1663150b7a02611d7b61129b565b8786866040518563ffffffff1660e01b8152600401611d9d9493929190613620565b6020604051808303816000875af1925050508015611dd957506040513d601f19601f82011682018060405250810190611dd69190613681565b60015b611e5b573d8060008114611e09576040519150601f19603f3d011682016040523d82523d6000602084013e611e0e565b606091505b506000815103611e53576040517f08c379a0000000000000000000000000000000000000000000000000000000008152600401611e4a906135ab565b60405180910390fd5b805181602001fd5b63150b7a0260e01b7bffffffffffffffffffffffffffffffffffffffffffffffffffffffff1916817bffffffffffffffffffffffffffffffffffffffffffffffffffffffff191614915050611eb0565b600190505b949350505050565b600073ffffffffffffffffffffffffffffffffffffffff168273ffffffffffffffffffffffffffffffffffffffff1603611f27576040517f08c379a0000000000000000000000000000000000000000000000000000000008152600401611f1e906136fa565b60405180910390fd5b611f308161135c565b15611f70576040517f08c379a0000000000000000000000000000000000000000000000000000000008152600401611f6790613766565b60405180910390fd5b611f7e600083836001611cca565b611f878161135c565b15611fc7576040517f08c379a0000000000000000000000000000000000000000000000000000000008152600401611fbe90613766565b60405180910390fd5b6001600360008473ffffffffffffffffffffffffffffffffffffffff1673ffffffffffffffffffffffffffffffffffffffff16815260200190815260200160002060008282540192505081905550816002600083815260200190815260200160002060006101000a81548173ffffffffffffffffffffffffffffffffffffffff021916908373ffffffffffffffffffffffffffffffffffffffff160217905550808273ffffffffffffffffffffffffffffffffffffffff16600073ffffffffffffffffffffffffffffffffffffffff167fddf252ad1be2c89b69c2b068fc378daa952ba7f163c4a11628f55a4df523b3ef60405160405180910390a46120d1600083836001611cd0565b5050565b6000808273ffffffffffffffffffffffffffffffffffffffff163b119050919050565b60008115159050919050565b61210d816120f8565b82525050565b60006020820190506121286000830184612104565b92915050565b6000604051905090565b600080fd5b600080fd5b60007fffffffff0000000000000000000000000000000000000000000000000000000082169050919050565b61217781612142565b811461218257600080fd5b50565b6000813590506121948161216e565b92915050565b6000602082840312156121b0576121af612138565b5b60006121be84828501612185565b91505092915050565b600081519050919050565b600082825260208201905092915050565b60005b838110156122015780820151818401526020810190506121e6565b60008484015250505050565b6000601f19601f8301169050919050565b6000612229826121c7565b61223381856121d2565b93506122438185602086016121e3565b61224c8161220d565b840191505092915050565b60006020820190508181036000830152612271818461221e565b905092915050565b6000819050919050565b61228c81612279565b811461229757600080fd5b50565b6000813590506122a981612283565b92915050565b6000602082840312156122c5576122c4612138565b5b60006122d38482850161229a565b91505092915050565b600073ffffffffffffffffffffffffffffffffffffffff82169050919050565b6000612307826122dc565b9050919050565b612317816122fc565b82525050565b6000602082019050612332600083018461230e565b92915050565b612341816122fc565b811461234c57600080fd5b50565b60008135905061235e81612338565b92915050565b6000806040838503121561237b5761237a612138565b5b60006123898582860161234f565b925050602061239a8582860161229a565b9150509250929050565b6123ad81612279565b82525050565b60006020820190506123c860008301846123a4565b92915050565b6123d7816120f8565b81146123e257600080fd5b50565b6000813590506123f4816123ce565b92915050565b6000602082840312156124105761240f612138565b5b600061241e848285016123e5565b91505092915050565b6000806000606084860312156124405761243f612138565b5b600061244e8682870161234f565b935050602061245f8682870161234f565b92505060406124708682870161229a565b9150509250925092565b6000602082840312156124905761248f612138565b5b600061249e8482850161234f565b91505092915050565b60006124b2826122dc565b9050919050565b6124c2816124a7565b82525050565b60006020820190506124dd60008301846124b9565b92915050565b600080fd5b600080fd5b600080fd5b60008083601f840112612508576125076124e3565b5b8235905067ffffffffffffffff811115612525576125246124e8565b5b602083019150836001820283011115612541576125406124ed565b5b9250929050565b6000806020838503121561255f5761255e612138565b5b600083013567ffffffffffffffff81111561257d5761257c61213d565b5b612589858286016124f2565b92509250509250929050565b600080604083850312156125ac576125ab612138565b5b60006125ba8582860161234f565b92505060206125cb858286016123e5565b9150509250929050565b600080fd5b7f4e487b7100000000000000000000000000000000000000000000000000000000600052604160045260246000fd5b6126128261220d565b810181811067ffffffffffffffff82111715612631576126306125da565b5b80604052505050565b600061264461212e565b90506126508282612609565b919050565b600067ffffffffffffffff8211156126705761266f6125da565b5b6126798261220d565b9050602081019050919050565b82818337600083830152505050565b60006126a86126a384612655565b61263a565b9050828152602081018484840111156126c4576126c36125d5565b5b6126cf848285612686565b509392505050565b600082601f8301126126ec576126eb6124e3565b5b81356126fc848260208601612695565b91505092915050565b6000806000806080858703121561271f5761271e612138565b5b600061272d8782880161234f565b945050602061273e8782880161234f565b935050604061274f8782880161229a565b925050606085013567ffffffffffffffff8111156127705761276f61213d565b5b61277c878288016126d7565b91505092959194509250565b6000806040838503121561279f5761279e612138565b5b60006127ad8582860161234f565b92505060206127be8582860161234f565b9150509250929050565b7f4e487b7100000000000000000000000000000000000000000000000000000000600052602260045260246000fd5b6000600282049050600182168061280f57607f821691505b602082108103612822576128216127c8565b5b50919050565b7f4552433732313a20617070726f76616c20746f2063757272656e74206f776e6560008201527f7200000000000000000000000000000000000000000000000000000000000000602082015250565b60006128846021836121d2565b915061288f82612828565b604082019050919050565b600060208201905081810360008301526128b381612877565b9050919050565b7f4552433732313a20617070726f76652063616c6c6572206973206e6f7420746f60008201527f6b656e206f776e6572206f7220617070726f76656420666f7220616c6c000000602082015250565b6000612916603d836121d2565b9150612921826128ba565b604082019050919050565b6000602082019050818103600083015261294581612909565b9050919050565b7f546f6b656e20646f6573206e6f74206578697374000000000000000000000000600082015250565b60006129826014836121d2565b915061298d8261294c565b602082019050919050565b600060208201905081810360008301526129b181612975565b9050919050565b600081905092915050565b60008190508160005260206000209050919050565b600081546129e5816127f7565b6129ef81866129b8565b94506001821660008114612a0a5760018114612a1f57612a52565b60ff1983168652811515820286019350612a52565b612a28856129c3565b60005b83811015612a4a57815481890152600182019150602081019050612a2b565b838801955050505b50505092915050565b6000612a66826121c7565b612a7081856129b8565b9350612a808185602086016121e3565b80840191505092915050565b7f2e6a736f6e000000000000000000000000000000000000000000000000000000600082015250565b6000612ac26005836129b8565b9150612acd82612a8c565b600582019050919050565b6000612ae482856129d8565b9150612af08284612a5b565b9150612afb82612ab5565b91508190509392505050565b7f4552433732313a2063616c6c6572206973206e6f7420746f6b656e206f776e6560008201527f72206f7220617070726f76656400000000000000000000000000000000000000602082015250565b6000612b63602d836121d2565b9150612b6e82612b07565b604082019050919050565b60006020820190508181036000830152612b9281612b56565b9050919050565b600081905092915050565b50565b6000612bb4600083612b99565b9150612bbf82612ba4565b600082019050919050565b6000612bd582612ba7565b9150819050919050565b7f7769746864726177206661696c65640000000000000000000000000000000000600082015250565b6000612c15600f836121d2565b9150612c2082612bdf565b602082019050919050565b60006020820190508181036000830152612c4481612c08565b9050919050565b7f4552433732313a20696e76616c696420746f6b656e2049440000000000000000600082015250565b6000612c816018836121d2565b9150612c8c82612c4b565b602082019050919050565b60006020820190508181036000830152612cb081612c74565b9050919050565b7f4552433732313a2061646472657373207a65726f206973206e6f74206120766160008201527f6c6964206f776e65720000000000000000000000000000000000000000000000602082015250565b6000612d136029836121d2565b9150612d1e82612cb7565b604082019050919050565b60006020820190508181036000830152612d4281612d06565b9050919050565b600082905092915050565b60006020601f8301049050919050565b600082821b905092915050565b600060088302612da17fffffffffffffffffffffffffffffffffffffffffffffffffffffffffffffffff82612d64565b612dab8683612d64565b95508019841693508086168417925050509392505050565b6000819050919050565b6000612de8612de3612dde84612279565b612dc3565b612279565b9050919050565b6000819050919050565b612e0283612dcd565b612e16612e0e82612def565b848454612d71565b825550505050565b600090565b612e2b612e1e565b612e36818484612df9565b505050565b5b81811015612e5a57612e4f600082612e23565b600181019050612e3c565b5050565b601f821115612e9f57612e70816129c3565b612e7984612d54565b81016020851015612e88578190505b612e9c612e9485612d54565b830182612e3b565b50505b505050565b600082821c905092915050565b6000612ec260001984600802612ea4565b1980831691505092915050565b6000612edb8383612eb1565b9150826002028217905092915050565b612ef58383612d49565b67ffffffffffffffff811115612f0e57612f0d6125da565b5b612f1882546127f7565b612f23828285612e5e565b6000601f831160018114612f525760008415612f40578287013590505b612f4a8582612ecf565b865550612fb2565b601f198416612f60866129c3565b60005b82811015612f8857848901358255600182019150602085019450602081019050612f63565b86831015612fa55784890135612fa1601f891682612eb1565b8355505b6001600288020188555050505b50505050505050565b7f6d696e74696e67206e6f7420656e61626c656400000000000000000000000000600082015250565b6000612ff16013836121d2565b9150612ffc82612fbb565b602082019050919050565b6000602082019050818103600083015261302081612fe4565b9050919050565b7f4e487b7100000000000000000000000000000000000000000000000000000000600052601160045260246000fd5b600061306182612279565b915061306c83612279565b925082820261307a81612279565b9150828204841483151761309157613090613027565b5b5092915050565b7f77726f6e67206d696e742076616c756500000000000000000000000000000000600082015250565b60006130ce6010836121d2565b91506130d982613098565b602082019050919050565b600060208201905081810360008301526130fd816130c1565b9050919050565b600061310f82612279565b915061311a83612279565b925082820190508082111561313257613131613027565b5b92915050565b7f736f6c64206f7574000000000000000000000000000000000000000000000000600082015250565b600061316e6008836121d2565b915061317982613138565b602082019050919050565b6000602082019050818103600083015261319d81613161565b9050919050565b7f6578636565646564206d61782077616c6c657400000000000000000000000000600082015250565b60006131da6013836121d2565b91506131e5826131a4565b602082019050919050565b60006020820190508181036000830152613209816131cd565b9050919050565b600061321b82612279565b91507fffffffffffffffffffffffffffffffffffffffffffffffffffffffffffffffff820361324d5761324c613027565b5b600182019050919050565b60006132648285612a5b565b91506132708284612a5b565b91508190509392505050565b7f4f776e61626c653a206e6577206f776e657220697320746865207a65726f206160008201527f6464726573730000000000000000000000000000000000000000000000000000602082015250565b60006132d86026836121d2565b91506132e38261327c565b604082019050919050565b60006020820190508181036000830152613307816132cb565b9050919050565b7f4e487b7100000000000000000000000000000000000000000000000000000000600052601260045260246000fd5b7f4f776e61626c653a2063616c6c6572206973206e6f7420746865206f776e6572600082015250565b60006133736020836121d2565b915061337e8261333d565b602082019050919050565b600060208201905081810360008301526133a281613366565b9050919050565b7f4552433732313a207472616e736665722066726f6d20696e636f72726563742060008201527f6f776e6572000000000000000000000000000000000000000000000000000000602082015250565b60006134056025836121d2565b9150613410826133a9565b604082019050919050565b60006020820190508181036000830152613434816133f8565b9050919050565b7f4552433732313a207472616e7366657220746f20746865207a65726f2061646460008201527f7265737300000000000000000000000000000000000000000000000000000000602082015250565b60006134976024836121d2565b91506134a28261343b565b604082019050919050565b600060208201905081810360008301526134c68161348a565b9050919050565b7f4552433732313a20617070726f766520746f2063616c6c657200000000000000600082015250565b60006135036019836121d2565b915061350e826134cd565b602082019050919050565b60006020820190508181036000830152613532816134f6565b9050919050565b7f4552433732313a207472616e7366657220746f206e6f6e20455243373231526560008201527f63656976657220696d706c656d656e7465720000000000000000000000000000602082015250565b60006135956032836121d2565b91506135a082613539565b604082019050919050565b600060208201905081810360008301526135c481613588565b9050919050565b600081519050919050565b600082825260208201905092915050565b60006135f2826135cb565b6135fc81856135d6565b935061360c8185602086016121e3565b6136158161220d565b840191505092915050565b6000608082019050613635600083018761230e565b613642602083018661230e565b61364f60408301856123a4565b818103606083015261366181846135e7565b905095945050505050565b60008151905061367b8161216e565b92915050565b60006020828403121561369757613696612138565b5b60006136a58482850161366c565b91505092915050565b7f4552433732313a206d696e7420746f20746865207a65726f2061646472657373600082015250565b60006136e46020836121d2565b91506136ef826136ae565b602082019050919050565b60006020820190508181036000830152613713816136d7565b9050919050565b7f4552433732313a20746f6b656e20616c7265616479206d696e74656400000000600082015250565b6000613750601c836121d2565b915061375b8261371a565b602082019050919050565b6000602082019050818103600083015261377f81613743565b905091905056fea26469706673582212207965765e9fa6163007d2ee312f6e31dfd0b14c05f3563d453bc130dfbd1002e064736f6c63430008120033",
    "linkReferences": {},
    "deployedLinkReferences": {}
}